{
  "contractName": "ToDoList",
  "abi": [
    {
      "inputs": [
        {
          "internalType": "uint256",
          "name": "",
          "type": "uint256"
        }
      ],
      "name": "tasks",
      "outputs": [
        {
          "internalType": "uint256",
          "name": "taskId",
          "type": "uint256"
        },
        {
          "internalType": "uint256",
          "name": "taskCreationOn",
          "type": "uint256"
        },
        {
          "internalType": "string",
          "name": "taskName",
          "type": "string"
        },
        {
          "internalType": "uint256",
          "name": "taskDeadline",
          "type": "uint256"
        },
        {
          "internalType": "bool",
          "name": "isCompleted",
          "type": "bool"
        },
        {
          "internalType": "bool",
          "name": "ttask",
          "type": "bool"
        }
      ],
      "stateMutability": "view",
      "type": "function",
      "constant": true
    },
    {
      "inputs": [
        {
          "internalType": "string",
          "name": "_taskName",
          "type": "string"
        },
        {
          "internalType": "uint256",
          "name": "_due",
          "type": "uint256"
        }
      ],
      "name": "addTask",
      "outputs": [
        {
          "internalType": "bool",
          "name": "",
          "type": "bool"
        }
      ],
      "stateMutability": "nonpayable",
      "type": "function"
    },
    {
      "inputs": [
        {
          "internalType": "uint256",
          "name": "_taskId",
          "type": "uint256"
        }
      ],
      "name": "deleteTask",
      "outputs": [
        {
          "internalType": "bool",
          "name": "",
          "type": "bool"
        }
      ],
      "stateMutability": "nonpayable",
      "type": "function"
    },
    {
      "inputs": [
        {
          "internalType": "uint256",
          "name": "_taskId",
          "type": "uint256"
        }
      ],
      "name": "completeTask",
      "outputs": [
        {
          "internalType": "bool",
          "name": "",
          "type": "bool"
        }
      ],
      "stateMutability": "nonpayable",
      "type": "function"
    },
    {
      "inputs": [
        {
          "internalType": "uint256",
          "name": "_taskId",
          "type": "uint256"
        },
        {
          "internalType": "uint256",
          "name": "_due",
          "type": "uint256"
        }
      ],
      "name": "updateDue",
      "outputs": [
        {
          "internalType": "uint256",
          "name": "",
          "type": "uint256"
        }
      ],
      "stateMutability": "nonpayable",
      "type": "function"
    }
  ],
  "bytecode": "0x608060405234801561001057600080fd5b50610d52806100206000396000f3fe608060405234801561001057600080fd5b50600436106100575760003560e01c80633143d0821461005c578063560f31921461008c5780638d977672146100bc578063dda966d9146100f1578063e1e2955814610121575b600080fd5b61007660048036038101906100719190610773565b610151565b6040516100839190610969565b60405180910390f35b6100a660048036038101906100a191906107c7565b61026a565b6040516100b39190610969565b60405180910390f35b6100d660048036038101906100d191906107c7565b610345565b6040516100e8969594939291906109ff565b60405180910390f35b61010b600480360381019061010691906107f0565b610423565b60405161011891906109e4565b60405180910390f35b61013b600480360381019061013691906107c7565b6104ca565b6040516101489190610969565b60405180910390f35b60006001600081548092919061016690610c1e565b91905055506000620151808361017c9190610b3a565b426101879190610ae4565b90506101916105d9565b848160400181905250600154816000018181525050428160200181815250508181606001818152505060018160a001901515908115158152505080600080600154815260200190815260200160002060008201518160000155602082015181600101556040820151816002019080519060200190610210929190610613565b506060820151816003015560808201518160040160006101000a81548160ff02191690831515021790555060a08201518160040160016101000a81548160ff02191690831515021790555090505060019250505092915050565b600060011515600080600154815260200190815260200160002060040160019054906101000a900460ff161515146102d7576040517f08c379a00000000000000000000000000000000000000000000000000000000081526004016102ce906109a4565b60405180910390fd5b600080838152602001908152602001600020600080820160009055600182016000905560028201600061030a9190610699565b60038201600090556004820160006101000a81549060ff02191690556004820160016101000a81549060ff0219169055505060019050919050565b600060205280600052604060002060009150905080600001549080600101549080600201805461037490610bec565b80601f01602080910402602001604051908101604052809291908181526020018280546103a090610bec565b80156103ed5780601f106103c2576101008083540402835291602001916103ed565b820191906000526020600020905b8154815290600101906020018083116103d057829003601f168201915b5050505050908060030154908060040160009054906101000a900460ff16908060040160019054906101000a900460ff16905086565b600060011515600080600154815260200190815260200160002060040160009054906101000a900460ff16151514610490576040517f08c379a0000000000000000000000000000000000000000000000000000000008152600401610487906109c4565b60405180910390fd5b620151808261049f9190610b3a565b426104aa9190610ae4565b600080858152602001908152602001600020600301819055905092915050565b600060011515600080600154815260200190815260200160002060040160019054906101000a900460ff16151514610537576040517f08c379a000000000000000000000000000000000000000000000000000000000815260040161052e906109a4565b60405180910390fd5b60001515600080600154815260200190815260200160002060040160009054906101000a900460ff161515146105a2576040517f08c379a000000000000000000000000000000000000000000000000000000000815260040161059990610984565b60405180910390fd5b600160008084815260200190815260200160002060040160006101000a81548160ff02191690831515021790555060019050919050565b6040518060c00160405280600081526020016000815260200160608152602001600081526020016000151581526020016000151581525090565b82805461061f90610bec565b90600052602060002090601f0160209004810192826106415760008555610688565b82601f1061065a57805160ff1916838001178555610688565b82800160010185558215610688579182015b8281111561068757825182559160200191906001019061066c565b5b50905061069591906106d9565b5090565b5080546106a590610bec565b6000825580601f106106b757506106d6565b601f0160209004906000526020600020908101906106d591906106d9565b5b50565b5b808211156106f25760008160009055506001016106da565b5090565b600061070961070484610a98565b610a67565b90508281526020810184848401111561072157600080fd5b61072c848285610baa565b509392505050565b600082601f83011261074557600080fd5b81356107558482602086016106f6565b91505092915050565b60008135905061076d81610d05565b92915050565b6000806040838503121561078657600080fd5b600083013567ffffffffffffffff8111156107a057600080fd5b6107ac85828601610734565b92505060206107bd8582860161075e565b9150509250929050565b6000602082840312156107d957600080fd5b60006107e78482850161075e565b91505092915050565b6000806040838503121561080357600080fd5b60006108118582860161075e565b92505060206108228582860161075e565b9150509250929050565b61083581610b94565b82525050565b600061084682610ac8565b6108508185610ad3565b9350610860818560208601610bb9565b61086981610cf4565b840191505092915050565b6000610881601883610ad3565b91507f54686973205461736b20646f6573206e6f7420657869737400000000000000006000830152602082019050919050565b60006108c1600c83610ad3565b91507f4964206e6f7420657869737400000000000000000000000000000000000000006000830152602082019050919050565b6000610901602583610ad3565b91507f5461736b20697320436f6d706c657465642c796f752063616e2774207570646160008301527f74652069740000000000000000000000000000000000000000000000000000006020830152604082019050919050565b61096381610ba0565b82525050565b600060208201905061097e600083018461082c565b92915050565b6000602082019050818103600083015261099d81610874565b9050919050565b600060208201905081810360008301526109bd816108b4565b9050919050565b600060208201905081810360008301526109dd816108f4565b9050919050565b60006020820190506109f9600083018461095a565b92915050565b600060c082019050610a14600083018961095a565b610a21602083018861095a565b8181036040830152610a33818761083b565b9050610a42606083018661095a565b610a4f608083018561082c565b610a5c60a083018461082c565b979650505050505050565b6000604051905081810181811067ffffffffffffffff82111715610a8e57610a8d610cc5565b5b8060405250919050565b600067ffffffffffffffff821115610ab357610ab2610cc5565b5b601f19601f8301169050602081019050919050565b600081519050919050565b600082825260208201905092915050565b6000610aef82610ba0565b9150610afa83610ba0565b9250827fffffffffffffffffffffffffffffffffffffffffffffffffffffffffffffffff03821115610b2f57610b2e610c67565b5b828201905092915050565b6000610b4582610ba0565b9150610b5083610ba0565b9250817fffffffffffffffffffffffffffffffffffffffffffffffffffffffffffffffff0483118215151615610b8957610b88610c67565b5b828202905092915050565b60008115159050919050565b6000819050919050565b82818337600083830152505050565b60005b83811015610bd7578082015181840152602081019050610bbc565b83811115610be6576000848401525b50505050565b60006002820490506001821680610c0457607f821691505b60208210811415610c1857610c17610c96565b5b50919050565b6000610c2982610ba0565b91507fffffffffffffffffffffffffffffffffffffffffffffffffffffffffffffffff821415610c5c57610c5b610c67565b5b600182019050919050565b7f4e487b7100000000000000000000000000000000000000000000000000000000600052601160045260246000fd5b7f4e487b7100000000000000000000000000000000000000000000000000000000600052602260045260246000fd5b7f4e487b7100000000000000000000000000000000000000000000000000000000600052604160045260246000fd5b6000601f19601f8301169050919050565b610d0e81610ba0565b8114610d1957600080fd5b5056fea2646970667358221220a3d1e86eec28b84e2bbe1936d9998943b7e19606445f3bb86d52f0e47692c81764736f6c63430008000033",
  "immutableReferences": {},
  "source": "//SPDX-License-Identifier: UNLICENSED\"\r\npragma solidity ^0.8.0;\r\n\r\ncontract ToDoList{\r\n\r\n    \r\n    struct Taskdata{\r\n        uint256  taskId;\r\n        uint256 taskCreationOn;\r\n        string taskName;\r\n        uint256 taskDeadline;\r\n       bool isCompleted;\r\n       bool  ttask;\r\n    }\r\n    //it will map structure\r\n    mapping (uint256 => Taskdata) public tasks;\r\n  \r\n   //set Id\r\n    uint256 taskCounter;\r\n  \r\n    //function to addTask\r\n    function addTask(string memory _taskName,uint256 _due) public returns(bool){\r\n       taskCounter++;\r\n        uint256 deadline = block.timestamp + ( _due*(1 days));\r\n        Taskdata memory task;\r\n        task.taskName = _taskName;\r\n        task.taskId = taskCounter;\r\n        task.taskCreationOn = block.timestamp;\r\n        task.taskDeadline = deadline;\r\n        task.ttask = true;\r\n        tasks[taskCounter] = task;\r\n        return true;\r\n        }\r\n       \r\n       //check Id is exist already or not\r\n       modifier isIdExist(){\r\n       \r\n            require(tasks[taskCounter].ttask == true , \"Id not exist\" );\r\n            _;\r\n        } \r\n        \r\n        //function to delete task\r\n    function deleteTask(uint256 _taskId) public isIdExist returns(bool){\r\n       \r\n            delete tasks[_taskId];\r\n        return true;\r\n    }\r\n    //task exist or not\r\n      modifier isExist(){\r\n          require(tasks[taskCounter].isCompleted== false , \"This Task does not exist\");\r\n            _;\r\n        } \r\n      //function to set task completed\r\n   function completeTask(uint256 _taskId) public isIdExist isExist returns(bool){\r\n      tasks[_taskId].isCompleted = true;\r\n       return true;\r\n   }\r\n   \r\n //check task is completed already or not\r\n   modifier taskComplete(){\r\n      // require(tasks[taskCounter].isCompleted== false , \"This Task does not exist\");\r\n       require(tasks[taskCounter].isCompleted==true,\"Task is Completed,you can't update it\");\r\n       _;\r\n   }\r\n   //function to update deadline\r\n   function updateDue(uint256 _taskId,uint256 _due)public  taskComplete  returns (uint256){\r\n      return tasks[_taskId].taskDeadline = block.timestamp + ((_due)*(1 days));\r\n        }\r\n     \r\n        \r\n    \r\n    \r\n    \r\n}",
  "sourcePath": "C:/Users/Acer/Desktop/Truffle-tutorial/contracts/ToDoList.sol",
  "compiler": {
    "name": "solc",
    "version": "0.8.0+commit.c7dfd78e.Emscripten.clang"
  },
  "schemaVersion": "3.4.0",
  "updatedAt": "2021-06-11T10:54:57.420Z",
  "networkType": "ethereum",
  "devdoc": {
    "kind": "dev",
    "methods": {},
    "version": 1
  },
  "userdoc": {
    "kind": "user",
    "methods": {},
    "version": 1
  }
}